{
  "contractName": "Rps",
  "abi": [
    {
      "constant": true,
      "inputs": [],
      "name": "owner",
      "outputs": [
        {
          "name": "",
          "type": "address"
        }
      ],
      "payable": false,
      "stateMutability": "view",
      "type": "function"
    },
    {
      "inputs": [],
      "payable": false,
      "stateMutability": "nonpayable",
      "type": "constructor"
    },
    {
      "anonymous": false,
      "inputs": [
        {
          "indexed": false,
          "name": "addr",
          "type": "address"
        },
        {
          "indexed": false,
          "name": "amount",
          "type": "uint256"
        }
      ],
      "name": "LogPay",
      "type": "event"
    },
    {
      "constant": false,
      "inputs": [
        {
          "name": "gameName",
          "type": "bytes32"
        },
        {
          "name": "hash",
          "type": "bytes32"
        }
      ],
      "name": "startGame",
      "outputs": [],
      "payable": true,
      "stateMutability": "payable",
      "type": "function"
    },
    {
      "constant": false,
      "inputs": [
        {
          "name": "gameName",
          "type": "bytes32"
        },
        {
          "name": "hash",
          "type": "bytes32"
        }
      ],
      "name": "joinGame",
      "outputs": [],
      "payable": true,
      "stateMutability": "payable",
      "type": "function"
    },
    {
      "constant": true,
      "inputs": [
        {
          "name": "gameName",
          "type": "bytes32"
        }
      ],
      "name": "getBetValue",
      "outputs": [
        {
          "name": "",
          "type": "uint256"
        }
      ],
      "payable": false,
      "stateMutability": "view",
      "type": "function"
    },
    {
      "constant": true,
      "inputs": [
        {
          "name": "gameName",
          "type": "bytes32"
        }
      ],
      "name": "getGameStatus",
      "outputs": [
        {
          "name": "",
          "type": "uint8"
        }
      ],
      "payable": false,
      "stateMutability": "view",
      "type": "function"
    },
    {
      "constant": true,
      "inputs": [
        {
          "name": "gameName",
          "type": "bytes32"
        }
      ],
      "name": "getWinnerAddress",
      "outputs": [
        {
          "name": "",
          "type": "address"
        }
      ],
      "payable": false,
      "stateMutability": "view",
      "type": "function"
    },
    {
      "constant": false,
      "inputs": [
        {
          "name": "gameName",
          "type": "bytes32"
        },
        {
          "name": "shape",
          "type": "uint8"
        },
        {
          "name": "secret",
          "type": "bytes32"
        }
      ],
      "name": "revealSecret",
      "outputs": [],
      "payable": false,
      "stateMutability": "nonpayable",
      "type": "function"
    },
    {
      "constant": false,
      "inputs": [
        {
          "name": "gameName",
          "type": "bytes32"
        }
      ],
      "name": "getReward",
      "outputs": [],
      "payable": false,
      "stateMutability": "nonpayable",
      "type": "function"
    }
  ],
  "bytecode": "0x6060604052341561000f57600080fd5b336000806101000a81548173ffffffffffffffffffffffffffffffffffffffff021916908373ffffffffffffffffffffffffffffffffffffffff1602179055506112d58061005e6000396000f30060606040526004361061008e576000357c0100000000000000000000000000000000000000000000000000000000900463ffffffff168063146c638d14610093578063389c631d146100dc5780634df102671461014357806363fed9a41461016c5780637db63ee6146101935780638da5cb5b146101d3578063ca606cb814610228578063e04e547514610251575b600080fd5b341561009e57600080fd5b6100b860048080356000191690602001909190505061028c565b604051808260058111156100c857fe5b60ff16815260200191505060405180910390f35b34156100e757600080fd5b610101600480803560001916906020019091905050610773565b604051808273ffffffffffffffffffffffffffffffffffffffff1673ffffffffffffffffffffffffffffffffffffffff16815260200191505060405180910390f35b61016a60048080356000191690602001909190803560001916906020019091905050610853565b005b341561017757600080fd5b610191600480803560001916906020019091905050610a47565b005b341561019e57600080fd5b6101d160048080356000191690602001909190803560ff1690602001909190803560001916906020019091905050610ed6565b005b34156101de57600080fd5b6101e66110c8565b604051808273ffffffffffffffffffffffffffffffffffffffff1673ffffffffffffffffffffffffffffffffffffffff16815260200191505060405180910390f35b61024f600480803560001916906020019091908035600019169060200190919050506110ed565b005b341561025c57600080fd5b6102766004808035600019169060200190919050506111d4565b6040518082815260200191505060405180910390f35b60006102966111fc565b6000806001600086600019166000191681526020019081526020016000206101606040519081016040529081600082015481526020016001820160009054906101000a900473ffffffffffffffffffffffffffffffffffffffff1673ffffffffffffffffffffffffffffffffffffffff1673ffffffffffffffffffffffffffffffffffffffff1681526020016002820160009054906101000a900473ffffffffffffffffffffffffffffffffffffffff1673ffffffffffffffffffffffffffffffffffffffff1673ffffffffffffffffffffffffffffffffffffffff1681526020016002820160149054906101000a900460ff16600381111561039557fe5b60038111156103a057fe5b81526020016003820154600019166000191681526020016004820154600019166000191681526020016005820160009054906101000a900460ff1660038111156103e657fe5b60038111156103f157fe5b81526020016006820154600019166000191681526020016007820154600019166000191681526020016008820160009054906101000a900460ff161515151581526020016008820160019054906101000a900460ff16151515158152505092506000836020015173ffffffffffffffffffffffffffffffffffffffff1614801561049557506000836040015173ffffffffffffffffffffffffffffffffffffffff16145b156104a3576000935061076b565b600060010283608001516000191614806104c8575060006001028360e0015160001916145b156104d6576001935061076b565b60006001028360a001516000191614806104fc5750600060010283610100015160001916145b1561050a576002935061076b565b8260600151915082608001516000191683606001518460a001516040518083600381111561053457fe5b60ff167f010000000000000000000000000000000000000000000000000000000000000002815260010182600019166000191681526020019250505060405180910390206000191614151561058857600391505b8260c0015190508260e00151600019168360c00151846101000151604051808360038111156105b357fe5b60ff167f010000000000000000000000000000000000000000000000000000000000000002815260010182600019166000191681526020019250505060405180910390206000191614151561060757600390505b80600381111561061357fe5b82600381111561061f57fe5b141561062e576005935061076b565b60038081111561063a57fe5b82600381111561064657fe5b1415610655576004935061076b565b60038081111561066157fe5b81600381111561066d57fe5b141561067c576003935061076b565b6000600381111561068957fe5b82600381111561069557fe5b14156106ca57600260038111156106a857fe5b8160038111156106b457fe5b146106c05760046106c3565b60035b935061076b565b600160038111156106d757fe5b8260038111156106e357fe5b141561071857600060038111156106f657fe5b81600381111561070257fe5b1461070e576004610711565b60035b935061076b565b6002600381111561072557fe5b82600381111561073157fe5b1415610766576001600381111561074457fe5b81600381111561075057fe5b1461075c57600461075f565b60035b935061076b565b600080fd5b505050919050565b60008061077f8361028c565b905060058081111561078d57fe5b81600581111561079957fe5b14156107a8576000915061084d565b600360058111156107b557fe5b8160058111156107c157fe5b1461080a5760016000846000191660001916815260200190815260200160002060020160009054906101000a900473ffffffffffffffffffffffffffffffffffffffff1661084a565b60016000846000191660001916815260200190815260200160002060010160009054906101000a900473ffffffffffffffffffffffffffffffffffffffff165b91505b50919050565b600060016000846000191660001916815260200190815260200160002060010160009054906101000a900473ffffffffffffffffffffffffffffffffffffffff1673ffffffffffffffffffffffffffffffffffffffff16141515156108b757600080fd5b600060016000846000191660001916815260200190815260200160002060020160009054906101000a900473ffffffffffffffffffffffffffffffffffffffff1673ffffffffffffffffffffffffffffffffffffffff1614151561091a57600080fd5b3373ffffffffffffffffffffffffffffffffffffffff1660016000846000191660001916815260200190815260200160002060010160009054906101000a900473ffffffffffffffffffffffffffffffffffffffff1673ffffffffffffffffffffffffffffffffffffffff161415151561099357600080fd5b34600160008460001916600019168152602001908152602001600020600001541415156109bf57600080fd5b3360016000846000191660001916815260200190815260200160002060020160006101000a81548173ffffffffffffffffffffffffffffffffffffffff021916908373ffffffffffffffffffffffffffffffffffffffff1602179055508060016000846000191660001916815260200190815260200160002060060181600019169055505050565b600080600080600060016000876000191660001916815260200190815260200160002060010160009054906101000a900473ffffffffffffffffffffffffffffffffffffffff16945060016000876000191660001916815260200190815260200160002060020160009054906101000a900473ffffffffffffffffffffffffffffffffffffffff1693506001600087600019166000191681526020019081526020016000206000015492508473ffffffffffffffffffffffffffffffffffffffff163373ffffffffffffffffffffffffffffffffffffffff161480610b5757508373ffffffffffffffffffffffffffffffffffffffff163373ffffffffffffffffffffffffffffffffffffffff16145b1515610b6257600080fd5b610b6b8661028c565b915060036005811115610b7a57fe5b826005811115610b8657fe5b1480610ba8575060046005811115610b9a57fe5b826005811115610ba657fe5b145b80610bc85750600580811115610bba57fe5b826005811115610bc657fe5b145b1515610bd357600080fd5b8473ffffffffffffffffffffffffffffffffffffffff163373ffffffffffffffffffffffffffffffffffffffff161415610d4e5760016000876000191660001916815260200190815260200160002060080160009054906101000a900460ff1615610c3d57600080fd5b60036005811115610c4a57fe5b826005811115610c5657fe5b14610c615782610c66565b600283025b90503373ffffffffffffffffffffffffffffffffffffffff166108fc829081150290604051600060405180830381858888f193505050501515610ca857600080fd5b7fab6319354aa0a96142d4d3c43eccea2f36e1641755bd569be0fbed3378b9d1193382604051808373ffffffffffffffffffffffffffffffffffffffff1673ffffffffffffffffffffffffffffffffffffffff1681526020018281526020019250505060405180910390a16001806000886000191660001916815260200190815260200160002060080160006101000a81548160ff021916908315150217905550610ece565b8373ffffffffffffffffffffffffffffffffffffffff163373ffffffffffffffffffffffffffffffffffffffff161415610ec95760016000876000191660001916815260200190815260200160002060080160019054906101000a900460ff1615610db857600080fd5b60046005811115610dc557fe5b826005811115610dd157fe5b14610ddc5782610de1565b600283025b90503373ffffffffffffffffffffffffffffffffffffffff166108fc829081150290604051600060405180830381858888f193505050501515610e2357600080fd5b6001806000886000191660001916815260200190815260200160002060080160016101000a81548160ff0219169083151502179055507fab6319354aa0a96142d4d3c43eccea2f36e1641755bd569be0fbed3378b9d1193382604051808373ffffffffffffffffffffffffffffffffffffffff1673ffffffffffffffffffffffffffffffffffffffff1681526020018281526020019250505060405180910390a1610ece565b600080fd5b505050505050565b60026005811115610ee357fe5b610eec8461028c565b6005811115610ef757fe5b141515610f0357600080fd5b3373ffffffffffffffffffffffffffffffffffffffff1660016000856000191660001916815260200190815260200160002060010160009054906101000a900473ffffffffffffffffffffffffffffffffffffffff1673ffffffffffffffffffffffffffffffffffffffff161415610fe0578060016000856000191660001916815260200190815260200160002060040181600019169055508160016000856000191660001916815260200190815260200160002060020160146101000a81548160ff02191690836003811115610fd657fe5b02179055506110c3565b3373ffffffffffffffffffffffffffffffffffffffff1660016000856000191660001916815260200190815260200160002060020160009054906101000a900473ffffffffffffffffffffffffffffffffffffffff1673ffffffffffffffffffffffffffffffffffffffff1614156110bd578060016000856000191660001916815260200190815260200160002060070181600019169055508160016000856000191660001916815260200190815260200160002060050160006101000a81548160ff021916908360038111156110b357fe5b02179055506110c2565b600080fd5b5b505050565b6000809054906101000a900473ffffffffffffffffffffffffffffffffffffffff1681565b60006001600084600019166000191681526020019081526020016000206000015414151561111a57600080fd5b60003411151561112957600080fd5b34600160008460001916600019168152602001908152602001600020600001819055503360016000846000191660001916815260200190815260200160002060010160006101000a81548173ffffffffffffffffffffffffffffffffffffffff021916908373ffffffffffffffffffffffffffffffffffffffff1602179055508060016000846000191660001916815260200190815260200160002060030181600019169055505050565b6000600160008360001916600019168152602001908152602001600020600001549050919050565b6101606040519081016040528060008152602001600073ffffffffffffffffffffffffffffffffffffffff168152602001600073ffffffffffffffffffffffffffffffffffffffff1681526020016000600381111561125757fe5b815260200160008019168152602001600080191681526020016000600381111561127d57fe5b8152602001600080191681526020016000801916815260200160001515815260200160001515815250905600a165627a7a723058202dff8f1245f729daeb8182380ebf0afcc4704a58aa89abdd7542c985332195b70029",
  "source": "pragma solidity ^0.4.19;\n\ncontract Rps {\n\n  enum GameStatus {\n    notStarted,\n    choosing,\n    revealing,\n    player1Won,\n    player2Won,\n    tie\n  }\n\n  enum Shape {\n    rock,\n    paper,\n    scissors,\n    invalidHash\n  }\n\n  struct Game {\n    uint bet;\n    address player1;\n    address player2;\n    Shape player1Shape;\n    bytes32 player1Hash;\n    bytes32 player1Secret;\n    Shape player2Shape;\n    bytes32 player2Hash;\n    bytes32 player2Secret;\n    bool player1Rewarded;\n    bool player2Rewarded;\n  }\n\n  address public owner;\n  mapping (bytes32 => Game) games;\n\n  event LogPay(address addr, uint amount);\n\n  function Rps() public {\n    owner = msg.sender;\n  }\n\n  function startGame(bytes32 gameName, bytes32 hash) public payable {\n    // check if game with this name doesn't exist\n    require(games[gameName].bet == 0);\n    require(msg.value > 0);\n\n    games[gameName].bet = msg.value;\n    games[gameName].player1 = msg.sender;\n    games[gameName].player1Hash = hash;\n  }\n\n  function joinGame(bytes32 gameName, bytes32 hash) public payable {\n    // check if game exists\n    require(games[gameName].player1 != 0);\n    // check if game is not played yet\n    require(games[gameName].player2 == 0);\n    require(games[gameName].player1 != msg.sender);\n    require(games[gameName].bet == msg.value);\n\n    games[gameName].player2 = msg.sender;\n    games[gameName].player2Hash = hash;\n  }\n\n  function getBetValue(bytes32 gameName) public view returns(uint) {\n    return games[gameName].bet;\n  }\n\n  function getGameStatus(bytes32 gameName) public view returns(GameStatus) {\n    Game memory game = games[gameName];\n\n    if (game.player1 == 0 && game.player2 == 0) {\n      return GameStatus.notStarted;\n    }\n    if (game.player1Hash == 0 || game.player2Hash == 0) {\n      return GameStatus.choosing;\n    }\n    if (game.player1Secret == 0 || game.player2Secret == 0) {\n      return GameStatus.revealing;\n    }\n\n    Shape player1Shape = game.player1Shape;\n    if (keccak256(game.player1Shape, game.player1Secret) != game.player1Hash) {\n        player1Shape = Shape.invalidHash;\n    }\n\n    Shape player2Shape = game.player2Shape;\n    if (keccak256(game.player2Shape, game.player2Secret) != game.player2Hash) {\n        player2Shape = Shape.invalidHash;\n    }\n\n    if (player1Shape == player2Shape) {\n        return GameStatus.tie;\n    }\n    if (player1Shape == Shape.invalidHash) {\n        return GameStatus.player2Won;\n    }\n    if (player2Shape == Shape.invalidHash) {\n        return GameStatus.player1Won;\n    }\n\n    if (player1Shape == Shape.rock) {\n        return player2Shape == Shape.scissors ? GameStatus.player1Won : GameStatus.player2Won;\n    }\n    if (player1Shape == Shape.paper) {\n        return player2Shape == Shape.rock ? GameStatus.player1Won : GameStatus.player2Won;\n    }\n    if (player1Shape == Shape.scissors) {\n        return player2Shape == Shape.paper ? GameStatus.player1Won : GameStatus.player2Won;\n    }\n    revert();\n  }\n\n  function getWinnerAddress(bytes32 gameName) public view returns(address) {\n    GameStatus status = getGameStatus(gameName);\n    if (status == GameStatus.tie) {\n      return address(0);\n    }\n\n    return status == GameStatus.player1Won ? games[gameName].player1 : games[gameName].player2;\n  }\n\n  function revealSecret(bytes32 gameName, Shape shape, bytes32 secret) public {\n    require(getGameStatus(gameName) == GameStatus.revealing);\n\n    if (games[gameName].player1 == msg.sender) {\n      games[gameName].player1Secret = secret;\n      games[gameName].player1Shape = shape;\n    } else if (games[gameName].player2 == msg.sender) {\n      games[gameName].player2Secret = secret;\n      games[gameName].player2Shape = shape;\n    } else {\n      revert();\n    }\n  }\n\n  function getReward(bytes32 gameName) public {\n    address player1 = games[gameName].player1;\n    address player2 = games[gameName].player2;\n    uint bet = games[gameName].bet;\n\n    require(msg.sender == player1 || msg.sender == player2);\n\n    GameStatus status = getGameStatus(gameName);\n    require(status == GameStatus.player1Won ||\n            status == GameStatus.player2Won ||\n            status == GameStatus.tie);\n\n    uint amount;\n    if (msg.sender == player1) {\n        if (games[gameName].player1Rewarded) {\n          revert();\n        } else {\n          amount = status == GameStatus.player1Won ? bet * 2 : bet;\n          msg.sender.transfer(amount);\n          LogPay(msg.sender, amount);\n          games[gameName].player1Rewarded = true;\n          return;\n        }\n    }\n\n    if (msg.sender == player2) {\n        if (games[gameName].player2Rewarded) {\n          revert();\n        } else {\n          amount = status == GameStatus.player2Won ? bet * 2 : bet;\n          msg.sender.transfer(amount);\n          games[gameName].player2Rewarded = true;\n          LogPay(msg.sender, amount);\n          return;\n        }\n    }\n\n    revert();\n  }\n\n}\n",
  "sourcePath": "/home/agornostal/projects/react-native-demo-dapp/ethereum/contracts/Rps.sol",
  "compiler": {
    "name": "solc",
    "version": "0.4.21+commit.dfe3193c.Emscripten.clang"
  },
  "schemaVersion": "2.0.0",
  "updatedAt": "2018-04-14T14:22:52.408Z"
}