{
  "contractName": "Splitter",
  "abi": [
    {
      "constant": true,
      "inputs": [],
      "name": "owner",
      "outputs": [
        {
          "name": "",
          "type": "address"
        }
      ],
      "payable": false,
      "stateMutability": "view",
      "type": "function"
    },
    {
      "inputs": [],
      "payable": false,
      "stateMutability": "nonpayable",
      "type": "constructor"
    },
    {
      "anonymous": false,
      "inputs": [
        {
          "indexed": false,
          "name": "addr",
          "type": "address"
        },
        {
          "indexed": false,
          "name": "amount",
          "type": "uint256"
        }
      ],
      "name": "LogPay",
      "type": "event"
    },
    {
      "constant": false,
      "inputs": [
        {
          "name": "addr1",
          "type": "address"
        },
        {
          "name": "addr2",
          "type": "address"
        }
      ],
      "name": "pay",
      "outputs": [],
      "payable": true,
      "stateMutability": "payable",
      "type": "function"
    }
  ],
  "bytecode": "0x6060604052341561000f57600080fd5b336000806101000a81548173ffffffffffffffffffffffffffffffffffffffff021916908373ffffffffffffffffffffffffffffffffffffffff16021790555061036a8061005e6000396000f30060606040526004361061004c576000357c0100000000000000000000000000000000000000000000000000000000900463ffffffff1680638da5cb5b14610051578063bd0af85d146100a6575b600080fd5b341561005c57600080fd5b6100646100f3565b604051808273ffffffffffffffffffffffffffffffffffffffff1673ffffffffffffffffffffffffffffffffffffffff16815260200191505060405180910390f35b6100f1600480803573ffffffffffffffffffffffffffffffffffffffff1690602001909190803573ffffffffffffffffffffffffffffffffffffffff16906020019091905050610118565b005b6000809054906101000a900473ffffffffffffffffffffffffffffffffffffffff1681565b60008273ffffffffffffffffffffffffffffffffffffffff163373ffffffffffffffffffffffffffffffffffffffff161415801561018257508173ffffffffffffffffffffffffffffffffffffffff168373ffffffffffffffffffffffffffffffffffffffff1614155b80156101ba57508173ffffffffffffffffffffffffffffffffffffffff163373ffffffffffffffffffffffffffffffffffffffff1614155b15156101c557600080fd5b6002341115156101d457600080fd5b6002348115156101e057fe5b0490508273ffffffffffffffffffffffffffffffffffffffff166108fc829081150290604051600060405180830381858888f19350505050151561022357600080fd5b7fab6319354aa0a96142d4d3c43eccea2f36e1641755bd569be0fbed3378b9d1198382604051808373ffffffffffffffffffffffffffffffffffffffff1673ffffffffffffffffffffffffffffffffffffffff1681526020018281526020019250505060405180910390a18173ffffffffffffffffffffffffffffffffffffffff166108fc829081150290604051600060405180830381858888f1935050505015156102ce57600080fd5b7fab6319354aa0a96142d4d3c43eccea2f36e1641755bd569be0fbed3378b9d1198282604051808373ffffffffffffffffffffffffffffffffffffffff1673ffffffffffffffffffffffffffffffffffffffff1681526020018281526020019250505060405180910390a15050505600a165627a7a7230582011e6422755b7b7fc57721ba7fa3d1765487d1730239de5125ab813a95964f7b20029",
  "source": "pragma solidity ^0.4.19;\n\ncontract Splitter {\n\n  address public owner;\n\n  event LogPay(address addr, uint amount);\n\n  function Splitter() public {\n    owner = msg.sender;\n  }\n\n  function pay(address addr1, address addr2) public payable {\n    require(msg.sender != addr1 && addr1 != addr2 && msg.sender != addr2);\n    require(msg.value > 2);\n    uint amountToTransfer = msg.value / 2;\n    addr1.transfer(amountToTransfer);\n    LogPay(addr1, amountToTransfer);\n    addr2.transfer(amountToTransfer);\n    LogPay(addr2, amountToTransfer);\n  }\n\n}\n",
  "sourcePath": "/home/agornostal/projects/react-native-demo-dapp/ethereum/contracts/Splitter.sol",
  "compiler": {
    "name": "solc",
    "version": "0.4.21+commit.dfe3193c.Emscripten.clang"
  },
  "schemaVersion": "2.0.0",
  "updatedAt": "2018-04-14T14:21:52.047Z"
}